{
  "contractName": "ErenToken",
  "abi": [
    {
      "inputs": [],
      "payable": false,
      "stateMutability": "nonpayable",
      "type": "constructor"
    },
    {
      "anonymous": false,
      "inputs": [
        {
          "indexed": true,
          "internalType": "address",
          "name": "from",
          "type": "address"
        },
        {
          "indexed": true,
          "internalType": "address",
          "name": "to",
          "type": "address"
        },
        {
          "indexed": false,
          "internalType": "uint256",
          "name": "tokens",
          "type": "uint256"
        }
      ],
      "name": "Transfer",
      "type": "event"
    },
    {
      "constant": true,
      "inputs": [],
      "name": "decimals",
      "outputs": [
        {
          "internalType": "uint8",
          "name": "",
          "type": "uint8"
        }
      ],
      "payable": false,
      "stateMutability": "view",
      "type": "function"
    },
    {
      "constant": true,
      "inputs": [],
      "name": "totalSupply_",
      "outputs": [
        {
          "internalType": "uint256",
          "name": "",
          "type": "uint256"
        }
      ],
      "payable": false,
      "stateMutability": "view",
      "type": "function"
    },
    {
      "constant": true,
      "inputs": [],
      "name": "name",
      "outputs": [
        {
          "internalType": "string",
          "name": "",
          "type": "string"
        }
      ],
      "payable": false,
      "stateMutability": "pure",
      "type": "function"
    },
    {
      "constant": true,
      "inputs": [],
      "name": "symbol",
      "outputs": [
        {
          "internalType": "string",
          "name": "",
          "type": "string"
        }
      ],
      "payable": false,
      "stateMutability": "pure",
      "type": "function"
    },
    {
      "constant": true,
      "inputs": [],
      "name": "totalSupply",
      "outputs": [
        {
          "internalType": "uint256",
          "name": "",
          "type": "uint256"
        }
      ],
      "payable": false,
      "stateMutability": "view",
      "type": "function"
    },
    {
      "constant": true,
      "inputs": [
        {
          "internalType": "address",
          "name": "tokenOwner",
          "type": "address"
        }
      ],
      "name": "getBalance",
      "outputs": [
        {
          "internalType": "uint256",
          "name": "",
          "type": "uint256"
        }
      ],
      "payable": false,
      "stateMutability": "view",
      "type": "function"
    },
    {
      "constant": false,
      "inputs": [
        {
          "internalType": "address",
          "name": "receiver",
          "type": "address"
        },
        {
          "internalType": "uint256",
          "name": "amount",
          "type": "uint256"
        }
      ],
      "name": "sendCoin",
      "outputs": [
        {
          "internalType": "bool",
          "name": "",
          "type": "bool"
        }
      ],
      "payable": false,
      "stateMutability": "nonpayable",
      "type": "function"
    }
  ],
  "bytecode": "0x608060405260026000806101000a81548160ff021916908360ff1602179055506305f5e10060025534801561003357600080fd5b50600254600160003273ffffffffffffffffffffffffffffffffffffffff1673ffffffffffffffffffffffffffffffffffffffff168152602001908152602001600020819055506105eb806100896000396000f3fe608060405234801561001057600080fd5b506004361061007d5760003560e01c8063324536eb1161005b578063324536eb1461014757806390b98a111461016557806395d89b41146101cb578063f8b2cb4f1461024e5761007d565b806306fdde031461008257806318160ddd14610105578063313ce56714610123575b600080fd5b61008a6102a6565b6040518080602001828103825283818151815260200191508051906020019080838360005b838110156100ca5780820151818401526020810190506100af565b50505050905090810190601f1680156100f75780820380516001836020036101000a031916815260200191505b509250505060405180910390f35b61010d6102e3565b6040518082815260200191505060405180910390f35b61012b6102ed565b604051808260ff1660ff16815260200191505060405180910390f35b61014f6102ff565b6040518082815260200191505060405180910390f35b6101b16004803603604081101561017b57600080fd5b81019080803573ffffffffffffffffffffffffffffffffffffffff16906020019092919080359060200190929190505050610305565b604051808215151515815260200191505060405180910390f35b6101d36104f7565b6040518080602001828103825283818151815260200191508051906020019080838360005b838110156102135780820151818401526020810190506101f8565b50505050905090810190601f1680156102405780820380516001836020036101000a031916815260200191505b509250505060405180910390f35b6102906004803603602081101561026457600080fd5b81019080803573ffffffffffffffffffffffffffffffffffffffff169060200190929190505050610534565b6040518082815260200191505060405180910390f35b60606040518060400160405280600981526020017f4572656e546f6b656e0000000000000000000000000000000000000000000000815250905090565b6000600254905090565b6000809054906101000a900460ff1681565b60025481565b6000600160003373ffffffffffffffffffffffffffffffffffffffff1673ffffffffffffffffffffffffffffffffffffffff1681526020019081526020016000205482111561035357600080fd5b6103a582600160003373ffffffffffffffffffffffffffffffffffffffff1673ffffffffffffffffffffffffffffffffffffffff1681526020019081526020016000205461057d90919063ffffffff16565b600160003373ffffffffffffffffffffffffffffffffffffffff1673ffffffffffffffffffffffffffffffffffffffff1681526020019081526020016000208190555061043a82600160008673ffffffffffffffffffffffffffffffffffffffff1673ffffffffffffffffffffffffffffffffffffffff1681526020019081526020016000205461059a90919063ffffffff16565b600160008573ffffffffffffffffffffffffffffffffffffffff1673ffffffffffffffffffffffffffffffffffffffff1681526020019081526020016000208190555081600254036002819055508273ffffffffffffffffffffffffffffffffffffffff163373ffffffffffffffffffffffffffffffffffffffff167fddf252ad1be2c89b69c2b068fc378daa952ba7f163c4a11628f55a4df523b3ef846040518082815260200191505060405180910390a36001905092915050565b60606040518060400160405280600281526020017f4554000000000000000000000000000000000000000000000000000000000000815250905090565b6000600160008373ffffffffffffffffffffffffffffffffffffffff1673ffffffffffffffffffffffffffffffffffffffff168152602001908152602001600020549050919050565b60008282111561058957fe5b600082840390508091505092915050565b6000808284019050838110156105ac57fe5b809150509291505056fea265627a7a7231582043e33581a0dc0898a7dd80d8bc3d46717b7c0f76c6ffc15e004ddfe44c428f9964736f6c63430005100032",
  "source": "// SPDX-License-Identifier: GPL-3.0\npragma solidity >=0.5.0 <0.9.0;\n\n\ncontract ErenToken  {\n\n  using SafeMath for uint256;\n\n    // string public  name = \"ErenToken\";\n    // string public  symbol = \"ET\";\n    uint8 public  decimals = 2;  \n\n\n    event Transfer(address indexed from, address indexed to, uint tokens);\n\n\n    mapping(address => uint256) balances;\n\n    \n    uint256 public totalSupply_ = 100000000;\n\n\n   constructor()  public {  \n    // balances[msg.sender] = totalSupply_;\n      balances[tx.origin] = totalSupply_;\n    }  \n\n     function name() public pure returns (string memory) {\n      return 'ErenToken';\n    }\n    function symbol() public pure returns (string memory) {\n      return 'ET';\n    }\n    function totalSupply() public view returns (uint256) {\n      return totalSupply_;\n    }\n\n\n    function getBalance(address tokenOwner) public view returns (uint) {\n        return balances[tokenOwner];\n    }\n\n    function sendCoin(address receiver, uint amount) public returns (bool) {\n        require(amount <= balances[msg.sender]);\n        balances[msg.sender] = balances[msg.sender].sub(amount);\n        balances[receiver] = balances[receiver].add(amount);\n        totalSupply_ = totalSupply_ - amount;\n        emit Transfer(msg.sender, receiver, amount);\n        return true;\n    }\n\n\n}\n\n\nlibrary SafeMath { \n\n  function sub(uint256 a, uint256 b) internal pure returns (uint256) {\n    assert(b <= a);\n    uint256 c = a - b;\n    return c;\n  }\n  function add(uint256 a, uint256 b) internal pure returns (uint256)   {\n    uint256 c = a + b;\n    assert(c >= a);\n    return c;\n  }\n  \n}\n\n",
  "sourcePath": "/Users/erenbekman/Desktop/Blockchain/ET/ErenToken/src/contracts/ErenToken.sol",
  "compiler": {
    "name": "solc",
    "version": "0.5.16+commit.9c3226ce.Emscripten.clang"
  },
  "schemaVersion": "3.4.1",
  "updatedAt": "2021-09-06T20:21:27.557Z",
  "networkType": "ethereum",
  "devdoc": {
    "methods": {}
  },
  "userdoc": {
    "methods": {}
  }
}